{
  "contractName": "AionClient",
  "abi": [
    {
      "inputs": [
        {
          "name": "addraion",
          "type": "address"
        }
      ],
      "payable": false,
      "stateMutability": "nonpayable",
      "type": "constructor"
    },
    {
      "payable": true,
      "stateMutability": "payable",
      "type": "fallback"
    },
    {
      "constant": false,
      "inputs": [
        {
          "name": "to",
          "type": "address"
        },
        {
          "name": "value",
          "type": "uint256"
        },
        {
          "name": "gaslimit",
          "type": "uint256"
        },
        {
          "name": "data",
          "type": "bytes"
        }
      ],
      "name": "execfunct",
      "outputs": [
        {
          "name": "",
          "type": "bool"
        }
      ],
      "payable": false,
      "stateMutability": "nonpayable",
      "type": "function"
    }
  ],
  "bytecode": "0x608060405234801561001057600080fd5b5060405160208061022283398101806040528101908080519060200190929190505050806000806101000a81548173ffffffffffffffffffffffffffffffffffffffff021916908373ffffffffffffffffffffffffffffffffffffffff1602179055505061019f806100836000396000f300608060405260043610610041576000357c0100000000000000000000000000000000000000000000000000000000900463ffffffff1680630ed080eb14610043575b005b34801561004f57600080fd5b506100b0600480360381019080803573ffffffffffffffffffffffffffffffffffffffff16906020019092919080359060200190929190803590602001909291908035906020019082018035906020019190919293919293905050506100ca565b604051808215151515815260200191505060405180910390f35b60008060009054906101000a900473ffffffffffffffffffffffffffffffffffffffff1673ffffffffffffffffffffffffffffffffffffffff163373ffffffffffffffffffffffffffffffffffffffff1614151561012757600080fd5b8573ffffffffffffffffffffffffffffffffffffffff16858590858560405180838380828437820191505092505050600060405180830381858888f193505050509050959450505050505600a165627a7a723058203725f9ab1aae7ad21b419a17ef476d281063a432f0c012abd58d2527f920d29d0029",
  "source": "pragma solidity ^0.4.24; \n\n/* ----------------------------------------------------------------------------\n Client contract.\n This contract is generated for each user (user account). All the transactions of a user are executed from this contract.\n Only Aion smart contract can interact with the user account and only when the user schedules transactions.\n ----------------------------------------------------------------------------*/\n\ncontract AionClient {\n    \n    address private AionAddress;\n\n    constructor(address addraion) public{\n        AionAddress = addraion;\n    }\n\n    \n    function execfunct(address to, uint256 value, uint256 gaslimit, bytes data) external returns(bool) {\n        require(msg.sender == AionAddress);\n        return to.call.value(value).gas(gaslimit)(data);\n\n    }\n    \n\n    function () payable public {}\n\n}\n\n\n// ----------------------------------------------------------------------------\n// SafeMat library\n// ----------------------------------------------------------------------------\nlibrary SafeMath {\n  /** @dev Multiplies two numbers, throws on overflow.*/\n    function mul(uint256 a, uint256 b) internal pure returns (uint256) {\n        if (a == 0) {return 0;}\n        uint256 c = a * b;\n        require(c / a == b);\n        return c;\n    }\n\n  /** @dev Integer division of two numbers, truncating the quotient.*/\n    function div(uint256 a, uint256 b) internal pure returns (uint256) {\n        uint256 c = a / b;\n        return c;\n    }\n\n  /**@dev Substracts two numbers, throws on overflow (i.e. if subtrahend is greater than minuend).*/\n    function sub(uint256 a, uint256 b) internal pure returns (uint256) {\n        require(b <= a);\n        return a - b;\n    }\n\n  /** @dev Adds two numbers, throws on overflow.*/\n    function add(uint256 a, uint256 b) internal pure returns (uint256) {\n        uint256 c = a + b;\n        require(c >= a);\n        return c;\n    }\n\n}\n\n\n\n/* ----------------------------------------------------------------------------\n Aion Smart contract (by ETH-Pantheon)\n  ----------------------------------------------------------------------------*/\n\ncontract Aion {\n    using SafeMath for uint256;\n\n    address public owner;\n    uint256 public serviceFee;\n    uint256 public AionID;\n    uint256 public feeChangeInterval;\n    mapping(address => address) public clientAccount;\n    mapping(uint256 => bytes32) public scheduledCalls;\n\n    // Log for executed transactions.\n    event ExecutedCallEvent(address indexed from, uint256 indexed AionID, bool TxStatus, bool TxStatus_cancel, bool reimbStatus);\n    \n    // Log for scheduled transactions.                        \n    event ScheduleCallEvent(uint256 indexed blocknumber, address indexed from, address to, uint256 value, uint256 gaslimit,\n                            uint256 gasprice, uint256 fee, bytes data, uint256 indexed AionID, bool schedType);\n    \n    // Log for cancelation of a scheduled call (no fee is charged, all funds are moved from client's smart contract to client's address)                        \n    event CancellScheduledTxEvent(address indexed from, uint256 Total, bool Status, uint256 indexed AionID);\n    \n\n    // Log for changes in the service fee\n    event feeChanged(uint256 newfee, uint256 oldfee);\n    \n\n    \n    \n    constructor () public {\n        owner = msg.sender;\n        serviceFee = 0;\n    }    \n\n    // This function allows to change the address of the owner (admin of the contract)\n    function transferOwnership(address newOwner) public {\n        require(msg.sender == owner);\n        withdraw();\n        owner = newOwner;\n    }\n\n    // This function creates an account (contract) for a client if his address is \n    // not yet associated to an account\n    function createAccount() internal {\n        if(clientAccount[msg.sender]==address(0x0)){\n            AionClient newContract = new AionClient(address(this));\n            clientAccount[msg.sender] = address(newContract);\n        }\n    }\n    \n    \n    \n    /* This function schedules transactions: client should provide an amount of Ether equal to value + gaslimit*gasprice + serviceFee\n    @param blocknumber block or timestamp at which the transaction should be executed. \n    @param to recipient of the transaction.\n    @param value Amount of Wei to send with the transaction.\n    @param gaslimit maximum amount of gas to spend in the transaction.\n    @param gasprice value to pay per unit of gas.\n    @param data transaction data.\n    @param schedType determines if the transaction is scheduled on blocks or timestamp (true->timestamp)\n    @return uint256 Identification of the transaction\n    @return address address of the client account created\n    */\n    function ScheduleCall(uint256 blocknumber, address to, uint256 value, uint256 gaslimit, uint256 gasprice, bytes data, bool schedType) public payable returns (uint,address){\n        require(msg.value == value.add(gaslimit.mul(gasprice)).add(serviceFee));\n        AionID = AionID + 1;\n        scheduledCalls[AionID] = keccak256(abi.encodePacked(blocknumber, msg.sender, to, value, gaslimit, gasprice, serviceFee, data, schedType));\n        createAccount();\n        clientAccount[msg.sender].transfer(msg.value);\n        emit ScheduleCallEvent(blocknumber, msg.sender, to, value, gaslimit, gasprice, serviceFee, data, AionID, schedType);\n        return (AionID,clientAccount[msg.sender]);\n    }\n\n    \n    /* This function executes the transaction at the correct time/block\n    Aion off-chain system should provide the correct information for executing a transaction.\n    The information is checked against the hash of the original data provided by the user saved in scheduledCalls.\n    If the information does not match, the transaction is reverted.\n    */\n    function executeCall(uint256 blocknumber, address from, address to, uint256 value, uint256 gaslimit, uint256 gasprice,\n                         uint256 fee, bytes data, uint256 aionId, bool schedType) external {\n        require(msg.sender==owner);\n        if(schedType) require(blocknumber <= block.timestamp);\n        if(!schedType) require(blocknumber <= block.number);\n        \n        require(scheduledCalls[aionId]==keccak256(abi.encodePacked(blocknumber, from, to, value, gaslimit, gasprice, fee, data, schedType)));\n        AionClient instance = AionClient(clientAccount[from]);\n        \n        require(instance.execfunct(address(this), gasprice*gaslimit+fee, 2100, hex\"00\"));\n        bool TxStatus = instance.execfunct(to, value, gasleft().sub(50000), data);\n        \n        // If the user tx fails return the ether to user\n        bool TxStatus_cancel;\n        if(!TxStatus && value>0){TxStatus_cancel = instance.execfunct(from, value, 2100, hex\"00\");}\n        \n        delete scheduledCalls[aionId];\n        bool reimbStatus = from.call.value((gasleft()).mul(gasprice)).gas(2100)();\n        emit ExecutedCallEvent(from, aionId,TxStatus, TxStatus_cancel, reimbStatus);\n        \n    }\n\n    \n    /* This function allows clients to cancel scheduled transctions. No fee is charged.\n    Parameters are the same as in ScheduleCall.\n    @return bool indicating success or failure.\n    */\n    function cancellScheduledTx(uint256 blocknumber, address from, address to, uint256 value, uint256 gaslimit, uint256 gasprice,\n                         uint256 fee, bytes data, uint256 aionId, bool schedType) external returns(bool) {\n        if(schedType) require(blocknumber >=  block.timestamp+(3 minutes) || blocknumber <= block.timestamp-(5 minutes));\n        if(!schedType) require(blocknumber >  block.number+10 || blocknumber <= block.number-20);\n        require(scheduledCalls[aionId]==keccak256(abi.encodePacked(blocknumber, from, to, value, gaslimit, gasprice, fee, data, schedType)));\n        require(msg.sender==from);\n        AionClient instance = AionClient(clientAccount[msg.sender]);\n        \n        bool Status = instance.execfunct(from, value+gasprice*gaslimit+fee, 3000, hex\"00\");\n        require(Status);\n        emit CancellScheduledTxEvent(from, value+gasprice*gaslimit+fee, Status, aionId);\n        delete scheduledCalls[aionId];\n        return true;\n    }\n    \n    \n    \n    \n    // This function allows the owner of the contract to retrieve the fees and the gas price\n    function withdraw() public {\n        require(msg.sender==owner);\n        owner.transfer(address(this).balance);\n    }\n    \n    \n    // This function updates the service fee.\n    // To provide security to the clients the fee can only be updated once per day.\n    // This is to maintain the same price despite the Ether variation.\n    // Also, the amount of the update (if increased) can only increase 10% each time.\n    // Furthermore, an event is fired when the fee has been changed to inform the network.\n    function updatefee(uint256 fee) public{\n        require(msg.sender==owner);\n        require(feeChangeInterval<block.timestamp);\n        uint256 oldfee = serviceFee;\n        if(fee>serviceFee){\n            require(((fee.sub(serviceFee)).mul(100)).div(serviceFee)<=10);\n            serviceFee = fee;\n        } else{\n            serviceFee = fee;\n        }\n        feeChangeInterval = block.timestamp + (1 days);\n        emit feeChanged(serviceFee, oldfee);\n    } \n    \n\n    \n    // fallback- receive Ether\n    function () public payable {\n    \n    }\n\n\n\n}\n",
  "sourcePath": "/home/zmg/AionGoalZapp/contracts/aion.sol",
  "compiler": {
    "name": "solc",
    "version": "0.4.24+commit.e67f0147.Emscripten.clang"
  },
  "schemaVersion": "3.2.4",
  "updatedAt": "2020-09-06T03:39:18.606Z",
  "devdoc": {
    "methods": {}
  },
  "userdoc": {
    "methods": {}
  }
}